:100000000C949D000C94AF000C94AF000C94AF00C6
:100010000C94AF000C94AF000C94AF000C94AF00A4
:100020000C94AF000C94AF000C94AF000C94AF0094
:100030000C94AF000C94AF000C94AF000C94AF0084
:100040000C94AF000C94AF000C94AF000C94AF0074
:100050000C94AF000C94AF000C94AF000C94AF0064
:100060000C94BD000C94AF00D800FB00FB00FB001B
:10007000FB00FB00FB00FB00D800FB00FB00FB00CB
:10008000FB00FB00FB00FB00D800FB00FB00FB00BB
:10009000FB00FB00FB00FB00D800FB00FB00FB00AB
:1000A000FB00FB00FB00FB00DC00FB00FB00FB0097
:1000B000FB00FB00FB00FB00FB00FB00FB00FB0068
:1000C000FB00FB00FB00FB00DC00FB00FB00FB0077
:1000D000FB00FB00FB00FB00FB00FB00FB00FB0048
:1000E000FB00FB00FB00FB00F800FB00FB00FB003B
:1000F000FB00FB00FB00FB00E400FB00FB00FB003F
:10010000FB00FB00FB00FB00E400FB00FB00FB002E
:10011000FB00FB00FB00FB00EC00FB00FB00FB0016
:10012000FB00FB00FB00FB00F400FB00FB00FB00FE
:10013000FB00FB00FB00FB00F40011241FBECFEF0F
:10014000D8E0DEBFCDBF21E0A0E0B1E001C01D924C
:10015000A430B207E1F70E9421010C9433020C9401
:100160000000880F8093BA0085E48093BC00109251
:10017000010110920001789408951F920F920FB61A
:100180000F9211248F939F93AF93BF93EF93FF939D
:100190008091B900E82FE87F8E2F90E0FC01E056B7
:1001A000F109E936F10538F5EC5CFF4F0C942D02AE
:1001B00085EC8093BC001FC08091BB008093000140
:1001C00085EC8093BC0017C0809101018093BB0037
:1001D00085EC8093BC000FC0809101018093BB002F
:1001E00085EC8093BC0007C085EC8093BC0003C005
:1001F00085EC8093BC00FF91EF91BF91AF919F91EF
:100200008F910F900FBE0F901F9018958091000155
:100210008F3FB1F0811106C081E0809303011092FD
:1002200002010BC0813029F4809303018093020105
:1002300004C0823011F4109203018FEF809300010B
:1002400008958AB184608AB98AB188608AB987B111
:10025000816087B980E40E94B1008FEF8093000134
:100260000E94060180910301882309F18091020117
:10027000882351F08BB184608BB98BB1877F8BB9A8
:1002800088B1816088B909C08BB18B7F8BB98BB184
:10029000877F8BB988B18E7F88B92FEF81EE94E08C
:1002A000215080409040E1F700C00000D9CFF89481
:1002B0000E94B00178948C31910554F08BB1846028
:1002C0008BB98BB1877F8BB988B18E7F88B93EC0DF
:1002D0009C012F5031092D30310560F49BB19B7F7B
:1002E0009BB99BB1977F9BB998B1916098B9809366
:1002F00001012CC09C01225031092D30310560F4E0
:100300009BB19B7F9BB99BB1977F9BB998B1916043
:1003100098B9809301011AC08130910561F49BB1B5
:100320009B7F9BB99BB1977F9BB998B1916098B91E
:10033000809301010BC08BB18B7F8BB98BB1877F11
:100340008BB988B18E7F88B9109201012FEF81EEB1
:1003500094E0215080409040E1F700C0000080CF41
:100360008AB180628AB98AB18F7B8AB98BB18F7D5D
:100370008BB900C000C000008BB180628BB923E054
:100380002A95F1F700008BB18F7D8BB980E090E06A
:10039000DC010AC00196A11DB11D883A61E69607ED
:1003A000A105B10560F500004E9BF4CF80E090E020
:1003B000DC010AC00196A11DB11D893A21E6920710
:1003C000A105B105F8F400004E99F4CF86399105E6
:1003D000A105B105D0F0BC01CD012AE330E040E039
:1003E00050E00E940B02DA01C9010297A109B1098C
:1003F0008F389140A105B10558F4C90108958FEFD8
:100400009FEF08958FEF9FEF08958FEF9FEF08956F
:100410008FEF9FEF0895A1E21A2EAA1BBB1BFD01CF
:100420000DC0AA1FBB1FEE1FFF1FA217B307E407D3
:10043000F50720F0A21BB30BE40BF50B661F771F2B
:10044000881F991F1A9469F760957095809590950B
:100450009B01AC01BD01CF010895EE0FFF1F059078
:0A046000F491E02D0994F894FFCF09
:00000001FF
