:100000000C9434000C9451000C9451000C94510049
:100010000C9451000C9451000C9451000C9451001C
:100020000C9451000C9451000C9451000C9451000C
:100030000C9451000C9451000C9451000C945100FC
:100040000C9451000C9451000C9451000C945100EC
:100050000C9451000C9451000C9451000C945100DC
:100060000C9451000C94510011241FBECFEFD8E026
:10007000DEBFCDBF11E0A0E0B1E0E4EFFBE002C0E5
:1000800005900D92A831B107D9F721E0A8E1B1E0C0
:1000900001C01D92AB33B207E1F70E949C010C94A2
:1000A000F8050C9400000F931F93CF938B019C01D4
:1000B000C42F87B18F7C87B9443079F018F4413070
:1000C00031F023C0403191F04034C9F01EC0E9EB5B
:1000D000F0E080818C7F80831EC0E9EBF0E08081BE
:1000E0008D7F808380818160808315C0E9EBF0E0A3
:1000F00080818E7F80838081826080830CC0E9EB69
:10010000F0E080818360808306C0E9EBF0E08081CD
:100110008C7F8083C1E060E074E284EF90E0A9010D
:1001200098010E94DE02CA01B9016051710981097A
:1001300091094C2F50E09A01220F331F032E000C1F
:10014000440B550B0E94DE022093B800ECEBF0E06C
:10015000808184608083CF911F910F91089584EAFC
:100160008093BC008091BC008823E4F7089584E963
:100170008093BC0008958093BB0084E88093BC000A
:100180008091BC008823E4F78091B900887F883192
:1001900031F0883231F0803429F481E0089581E033
:1001A000089581E00895DC01662331F0ECEBF0E086
:1001B00090819064908305C0ECEBF0E090819F7B90
:1001C0009083ECEBF0E09081906890839091BC007C
:1001D0009923E4F79091B900987F983511F0903504
:1001E00029F48091BB008C9381E00895892F0895B4
:1001F0009BB1282F30E0220F331F220F331F937043
:10020000292B2BB995B19C7F829586958695837015
:10021000892B85B9089595B19B7F95B90E94F80007
:1002200085B1886085B98FE99FE00197F1F700C03B
:10023000000085B1877F85B9089584B18F6084B946
:100240008AB18C6F8AB915B81BB82FEF89EF90E08F
:10025000215080409040E1F700C0000080E30E9400
:100260000B018FE19EE40197F1F700C0000080E3ED
:100270000E940B018FE99FE00197F1F700C0000099
:1002800080E30E940B018FE99FE00197F1F700C026
:10029000000088E30E940B018CE00E940B0186E0C5
:1002A0000E940B0181E00E940B018FE39FE1019707
:1002B000F1F700C00000089595B1946095B90E94CF
:1002C000F80085B1886085B98FE99FE00197F1F763
:1002D00000C0000085B1877F85B90895CF93DF9373
:1002E000EC0103C00E945C01219688818111FACF44
:1002F000DF91CF910895613011F4815801C081548C
:100300000E940B01089581E00E940B018FE39FE1A1
:100310000197F1F700C00000089584B18F7D84B982
:1003200085B1806285B9089583B18295869587707D
:1003300091E0892781700895CF93DF9300D0CDB7E6
:10034000DEB741E060EA76E881E090E00E94530089
:100350000E941D010E94BF020E948D010E94830124
:1003600061E081E00E947B0180E091E00E946E01EB
:1003700061E089E00E947B0185E091E00E946E01CE
:100380000E94AF0080E10E94BB00813019F483E439
:100390000E94BB000E94B7008FE19EE40197F1F735
:1003A00000C000000E94AF0081E10E94BB008130CC
:1003B00009F095C01A82198261E0CE0102960E946E
:1003C000D30060E0CE0101960E94D3000E94B700E6
:1003D0008A8190E0982F882729818C01022B0E9426
:1003E0009401F82E882309F442C0809118018111EC
:1003F0003EC09FEF20E732E0915020403040E1F7CF
:1004000000C000000E949401882389F110931A0112
:10041000009319011F921F928AE091E09F938F939E
:100420001F9280E18F938BE191E09F938F930E94C5
:10043000000362E081E00E947B018BE191E00E9479
:100440006E0162E086E00E947B018EE091E00E94F6
:100450006E018FEF99E628E1815090402040E1F74E
:1004600000C000000FB6F894DEBF0FBECDBFF09203
:1004700018018091190190911A010817190748F085
:100480008091190190911A019801281B390BC9011B
:1004900002C080E090E09F938F938AE091E09F9369
:1004A0008F931F9280E18F938BE191E09F938F93C5
:1004B0000E94000362E081E00E947B018BE191E0F9
:1004C0000E946E0162E086E00E947B018EE091E076
:1004D0000E946E010FB6F894DEBF0FBECDBF0E9422
:1004E000AF0080E80E94BB00813019F483E40E94D1
:1004F000BB000E94B7008FE19EE40197F1F700C0B6
:1005000000000E94AF0081E80E94BB00813069F5C5
:10051000198260E0CE0101960E94D3000E94B700CC
:1005200089811F928F9380E191E09F938F931F9217
:1005300080E18F938BE291E09F938F930E94000361
:1005400062E089E00E947B018BE291E00E946E01F3
:1005500062E08CE00E947B0184E191E00E946E01E8
:100560000FB6F894DEBF0FBECDBF3FEF85EA9EE029
:10057000315080409040E1F700C0000001CF8AB1C7
:100580008E7F8AB98AB182608AB9E0ECF0E010828D
:10059000808182608083E1ECF0E010828081886954
:1005A0008083E2ECF0E0108280818660808380E1CD
:1005B00090E09093C5008093C4000895A1E21A2EA4
:1005C000AA1BBB1BFD010DC0AA1FBB1FEE1FFF1FF7
:1005D000A217B307E407F50720F0A21BB30BE40B47
:1005E000F50B661F771F881F991F1A9469F760958E
:1005F0007095809590959B01AC01BD01CF01089548
:10060000AEE0B0E0E6E0F3E00C94CF050D891E8982
:100610008F89988D26E02C831A83098397FF02C067
:1006200080E090E801979E838D83AE01455E5F4F29
:10063000698D7A8DCE0101960E9430034D815E81D5
:1006400057FD0AC02F813885421753070CF49A01D1
:10065000F801E20FF31F10822E96E4E00C94EB05F4
:10066000ABE0B0E0E6E3F3E00C94C1056C017B0184
:100670008A01FC0117821682838181FFCCC1CE01E1
:1006800001963C01F6019381F70193FD859193FF5B
:1006900081917F01882309F4BAC1853239F493FD31
:1006A000859193FF81917F01853229F4B60190E015
:1006B0000E942705E7CF912C212C312CFFE1F31567
:1006C000D8F08B3279F038F4803279F08332A1F4AB
:1006D000232D20611DC08D3261F0803369F4232DFC
:1006E000216016C0832D8260382EE32DE4603E2EFB
:1006F0002AC0F32DF8601DC037FC2DC020ED280F57
:100700002A3040F08E32B9F436FC81C1232D2064AA
:10071000322E19C036FE06C08AE0989E200D1124A4
:10072000922E11C0EAE02E9E200D1124222EF32DD0
:10073000F0623F2E08C08C3621F4832D8068382E5D
:1007400002C0883641F4F70193FD859193FF8191B2
:100750007F018111B3CF982F9F7D9554933028F45A
:100760000C5F1F4F9FE399830DC0833631F08337B1
:1007700071F0833509F059C021C0F8018081898367
:100780000E5F1F4F88248394912C530113C02801BE
:10079000F2E04F0E511CF801A080B18036FE03C07C
:1007A000692D70E002C06FEF7FEFC5010E941C054C
:1007B0004C018201F32DFF773F2E16C0280122E065
:1007C000420E511CF801A080B18036FE03C0692D95
:1007D00070E002C06FEF7FEFC5010E9411054C0170
:1007E000F32DF0683F2E820133FC1BC0822D90E078
:1007F00088169906B0F4B60180E290E00E942705C1
:100800002A94F4CFF50137FC859137FE81915F0181
:10081000B60190E00E94270521102A9421E0821A57
:1008200091088114910471F7E8C0843611F089367B
:1008300041F5F80137FE07C06081718182819381A3
:100840000C5F1F4F08C060817181072E000C880B60
:10085000990B0E5F1F4FF32DFF763F2E97FF09C0B8
:1008600090958095709561957F4F8F4F9F4FF06861
:100870003F2E2AE030E0A3010E946305882E8618EF
:1008800045C0853731F4232D2F7EB22E2AE030E08B
:1008900025C0932D997FB92E8F36C1F018F4883575
:1008A00079F0B5C0803719F0883721F0B0C0E92F52
:1008B000E061BE2EB4FE0DC0FB2DF460BF2E09C05A
:1008C00034FE0AC0292F2660B22E06C028E030E090
:1008D00005C020E130E002C020E132E0F801B7FEBF
:1008E00007C060817181828193810C5F1F4F06C0B8
:1008F0006081718180E090E00E5F1F4FA3010E9434
:100900006305882E8618FB2DFF773F2E36FE0DC01F
:10091000232D2E7FA22E891458F434FE0BC032FCF6
:1009200009C0832D8E7EA82E05C0B82CA32C03C031
:10093000B82C01C0B92CA4FE0FC0FE01E80DF11DBA
:100940008081803321F49A2D997EA92E09C0A2FEC0
:1009500006C0B394B39404C08A2D867809F0B3948A
:10096000A3FC11C0A0FE06C0B21488F4280C922C7F
:100970009B180EC0B21460F4B60180E290E00E94B1
:100980002705B394F7CFB21418F42B1802C0982C93
:10099000212CA4FE10C0B60180E390E00E94270540
:1009A000A2FE17C0A1FC03C088E790E002C088E562
:1009B00090E0B6010CC08A2D867859F0A1FE02C0E5
:1009C0008BE201C080E2A7FC8DE2B60190E00E94BC
:1009D0002705891438F4B60180E390E00E942705CA
:1009E0009A94F7CF8A94F301E80DF11D8081B60146
:1009F00090E00E9427058110F5CF222009F442CE15
:100A0000B60180E290E00E9427052A94F6CFF60115
:100A10008681978102C08FEF9FEF2B96E2E10C94C5
:100A2000DD05FC010590615070400110D8F78095FC
:100A300090958E0F9F1F0895FC01615070400190AA
:100A40000110D8F7809590958E0F9F1F08950F93F2
:100A50001F93CF93DF93FB01238121FD03C08FEF11
:100A60009FEF2CC022FF16C046815781248135811B
:100A70004217530744F4A081B1819D012F5F3F4F7E
:100A8000318320838C93268137812F5F3F4F3783BB
:100A9000268314C08B01EC01FB010084F185E02D5D
:100AA0000995892BE1F6D80116968D919C9117979F
:100AB000019617969C938E931697CE01DF91CF9156
:100AC0001F910F910895FA01AA27283051F1203182
:100AD00081F1E8946F936E7F6E5F7F4F8F4F9F4FD2
:100AE000AF4FB1E03ED0B4E03CD0670F781F891F14
:100AF0009A1FA11D680F791F8A1F911DA11D6A0FE2
:100B0000711D811D911DA11D20D009F468943F9194
:100B10002AE0269F11243019305D3193DEF6CF0193
:100B20000895462F4770405D4193B3E00FD0C9F759
:100B3000F6CF462F4F70405D4A3318F0495D31FDC6
:100B40004052419302D0A9F7EACFB4E0A695979519
:100B5000879577956795BA95C9F7009761057105EF
:100B600008959B01AC010A2E069457954795379539
:100B70002795BA95C9F7620F731F841F951FA01D93
:100B800008952F923F924F925F926F927F928F9231
:100B90009F92AF92BF92CF92DF92EF92FF920F930C
:100BA0001F93CF93DF93CDB7DEB7CA1BDB0B0FB616
:100BB000F894DEBF0FBECDBF09942A8839884888D3
:100BC0005F846E847D848C849B84AA84B984C88469
:100BD000DF80EE80FD800C811B81AA81B981CE0F60
:100BE000D11D0FB6F894DEBF0FBECDBFED01089545
:040BF000F894FFCFA7
:100BF4005065733A004469733A00253575006700FF
:080C040025337500636D00004B
:00000001FF
