S016000053656E736F72206465205065736F2E73726563F4
S11300000C940A010C9427010C9427010C942701E9
S11300100C9427010C9427010C9427010C942701BC
S11300200C9427010C9427010C9427010C942701AC
S11300300C9427010C9427010C9427010C9427019C
S11300400C9427010C9427010C9427010C9427018C
S11300500C9427010C9427010C9427010C9427017C
S11300600C9499010C942701B501080208020802B6
S11300700802080208020802B50108020802080280
S1130080080208020802080208020802080208021C
S1130090080208020802080208020802080208020C
S11300A00802080208020802BD0108020802080248
S11300B00802080208020802BD0108020802080238
S11300C00802080208020802BD0108020802080228
S11300D00802080208020802BD0108020802080218
S11300E008020802080208020002080208020802C4
S11300F00802080208020802D901080208020802DC
S11301000802080208020802D901080208020802CB
S11301100802080208020802E80100407A10F35AB3
S113012000A0724E18090010A5D4E80000E8764833
S1130130170000E40B54020000CA9A3B000000E1DF
S1130140F505000080969800000040420F00000072
S1130150A08601000000102700000000E803000052
S113016000006400000000000A000000000001001C
S1130170000000002C76D888DC674F0823DFC1DF3D
S1130180AE59E1B1B796E5E3E453C63AE651997640
S113019096E8E6C28426EB898C9B62ED407C6FFC7A
S11301A0EFBC9C9F40F2BAA56FA5F490055A2AF7BC
S11301B05C936B6CF9676DC11BFCE0E40D47FEF5C5
S11301C020E6B500D0ED902E03009435770500802D
S11301D0841E080000204E0A000000C80C3333338C
S11301E0330F986E12831141EF8D2114893BE6552C
S11301F016CFFEE6DB18D1844B381BF77C1D901D0F
S1130200A4BBE424203284725E228100C9F124EC70
S1130210A1E53D2711241FBECFEFD8E0DEBFCDBF3F
S113022011E0A0E0B1E0E8E3F0E102C005900D9236
S1130230A433B107D9F721E0A4E3B1E001C01D92D2
S1130240AC33B207E1F70E94F1020C941A080C9443
S113025000008AB1877F8AB98AB184608AB98BB178
S11302608B7F8BB9089589B186958695869591E0A3
S11302708927817008950E9433018823E1F38BB1AB
S11302808B7F8BB9000090E040E050E0BA0113C0CE
S11302908BB184608BB90000440F551F661F771F14
S11302A04B9B04C04F5F5F4F6F4F7F4F8BB18B7F72
S11302B08BB900009F5F983158F38BB184608BB980
S11302C000008BB18B7F8BB9000067FD7F6FCB0182
S11302D0BA010895CF92DF92EF92FF92CF93DF930A
S11302E0D82FC0E0C12CD12C760107C00E943B015D
S11302F0C60ED71EE81EF91ECF5FCD17B8F32D2FFB
S113030030E040E050E0C701B6010E94F704CA01A2
S1130310B901DF91CF91FF90EF90DF90CF900895D6
S11303201092B900880F8093BA0085E48093BC00D2
S113033008951F920F920FB60F9211248F939F93DB
S1130340AF93BF93EF93FF938091B900E82FE87FB9
S11303508E2F90E0FC01E056F109E935F10508F033
S113036057C0EC5CFF4F0C941605109238011092A4
S1130370350185EC8093BC0050C0809135018230FA
S113038068F4E0913501F0E08091BB00EA5CFE4F37
S11303908083809135018F5F809335018091350191
S11303A0823019F481E08093340185EC8093BC00A1
S11303B034C0109238018091390190913A019093A0
S11303C0BB0081E08093380185EC8093BC0025C09C
S11303D080913801813051F48091390190913A0132
S11303E08093BB0082E08093380106C0809139017C
S11303F090913A018093BB0085EC8093BC000DC0C2
S1130400109238011092350185EC8093BC0005C030
S11304101092380185EC8093BC00FF91EF91BF915D
S1130420AF919F918F910F900FBE0F901F901895D1
S113043084B1826084B982E8809380008AE18093E9
S113044081008FE39CE9909387008093860080ED80
S113045097E090938900809388000895853B08F085
S113046084EB282F30E0A0EDB7E00E941C0524EBBC
S113047030E040E050E00E94D5042053384F3093E0
S113048089002093880008958AB1806F8AB90895FD
S113049080FF04C09BB190619BB903C09BB19F7E58
S11304A09BB981FF04C09BB190629BB903C09BB10F
S11304B09F7D9BB982FF04C09BB190649BB903C02C
S11304C09BB19F7B9BB983FF04C08BB180688BB9C0
S11304D008958BB18F778BB908958F929F92AF92C5
S11304E0BF92CF92DF92EF92FF92893621E092077A
S11304F010F088E691E0A0E0B0E0BC01CD01052E4B
S11305005CE0660F771F881F991F5A95D1F7502D0D
S113051028E631E040E050E00E94D50469017A0108
S1130520812C912C540117C0E0913B01EF5FE770DF
S1130530E0933B01F0E0E55DFE4F80810E944802BC
S11305408FE39FE10197F1F700C000009FEF891A44
S1130550990AA90AB90A8C149D04AE04BF0420F3B5
S113056080E00E944802FF90EF90DF90CF90BF9010
S1130570AF909F908F90089580913401882389F0E3
S1130580E6E3F1E09081818110923401923019F018
S1130590933021F008950E942E02089590E00E9465
S11305A06D0208959093C5008093C40088E0809301
S11305B0C10086E08093C20008959091C00095FF29
S11305C0FCCF8093C6000895CF93DF93EC0103C062
S11305D021960E94DD0288818111FACFDF91CF91AB
S11305E00895CF93DF93CDB7DEB7A3970FB6F894F2
S11305F0DEBF0FBECDBF0E94290187E690E00E94B6
S1130600D2020E9418020E9444022FEF8FE097E268
S1130610215080409040E1F700C0000088E00E9433
S1130620900178940E94BC02F89484E00E946A01CC
S11306306B017C01789499231CF4C12CD12C760194
S1130640C114D10421E0E206F1042CF0CC24CA94B4
S1130650DC2CE12CF12CD0923A01C0923901C70173
S1130660B6010E94200420E030E048EC52E40E94ED
S1130670AC034B015C0120E030E040E052E40E9416
S1130680AC048823CCF42AE939E949E951E4C501E9
S1130690B4010E94AC048823A4F42DEC3CEC4CEC93
S11306A050E4C501B4010E94AC0488237CF00F2EF1
S11306B0FDE27F2EF02D0BC00F2EF4EB7F2EF02DDC
S11306C006C00F2EFAE57F2EF02D01C0712C872D68
S11306D00E942E022AE0AE014F5F5F4FC701B601B0
S11306E00E94560580E091E00E94E402CE0101964A
S11306F00E94E40280E191E00E94E40285E191E03D
S11307000E94E4028E010B5E1F4F21E044E0C5010C
S1130710B4010E942B05C8010E94E4028FE191E01C
S11307200E94E4024AE0BE01615E7F4F872D90E0A3
S11307300E944B05CE014F960E94E40288E291E0AC
S11307400E94E4028FEF93EC29E081509040204016
S1130750E1F700C0000066CF0E94C0030C9472044D
S11307600E946B0458F00E94640440F029F45F3F37
S113077029F00C945B0451110C94A6040C946104AC
S11307800E94830468F39923B1F3552391F3951BD5
S1130790550BBB27AA2762177307840738F09F5F9E
S11307A05F4F220F331F441FAA1FA9F335D00E2E0B
S11307B03AF0E0E832D091505040E695001CCAF778
S11307C02BD0FE2F29D0660F771F881FBB1F26173B
S11307D037074807AB07B0E809F0BB0B802DBF0112
S11307E0FF2793585F4F3AF09E3F510578F00C94E1
S11307F05B040C94A6045F3FE4F3983ED4F386951F
S113080077956795B795F7959F5FC9F7880F911D01
S11308109695879597F90895E1E0660F771F881FED
S1130820BB1F621773078407BA0720F0621B730BA0
S1130830840BBA0BEE1F88F7E0950895E89409C07D
S113084097FB3EF490958095709561957F4F8F4FFF
S11308509F4F9923A9F0F92F96E9BB279395F69515
S1130860879577956795B795F111F8CFFAF4BB0F93
S113087011F460FF1BC06F5F7F4F8F4F9F4F16C0F7
S1130880882311F096E911C0772321F09EE8872F81
S1130890762F05C0662371F096E8862F70E060E03D
S11308A02AF09A95660F771F881FDAF7880F9695B6
S11308B0879597F9089597F99F6780E870E060E05D
S11308C008959FEF80EC089500240A9416161706E5
S11308D018060906089500240A941216130614062D
S11308E005060895092E0394000C11F4882352F090
S11308F0BB0F40F4BF2B11F460FF04C06F5F7F4F48
S11309008F4F9F4F089557FD9058440F551F59F02E
S11309105F3F71F04795880F97FB991F61F09F3FE8
S113092079F087950895121613061406551FF2CF11
S11309304695F1DF08C0161617061806991FF1CF61
S113094086957105610508940895E894BB27662788
S11309507727CB0197F908950E94B10408F48FEF2B
S11309600895990F0008550FAA0BE0E8FEEF16163C
S11309701706E807F907C0F012161306E407F5078F
S113098098F0621B730B840B950B39F40A2661F003
S1130990232B242B252B21F408950A2609F4A140A6
S11309A0A6958FEF811D811D0895A1E21A2EAA1B21
S11309B0BB1BFD010DC0AA1FBB1FEE1FFF1FA2170B
S11309C0B307E407F50720F0A21BB30BE40BF50B08
S11309D0661F771F881F991F1A9469F76095709591
S11309E0809590959B01AC01BD01CF010895052E22
S11309F097FB1EF400940E940E0557FD07D00E9439
S1130A00D50407FC03D04EF40C940E055095409584
S1130A10309521953F4F4F4F5F4F089590958095A6
S1130A20709561957F4F8F4F9F4F0895EE0FFF1F75
S1130A300590F491E02D0994A29FB001B39FC001E9
S1130A40A39F700D811D1124911DB29F700D811DF6
S1130A501124911D0895EF920F931F93CF93DF9369
S1130A60E80147FD02C034E001C034E1042E000C6B
S1130A70550B57FF03C0519541955109E32E022FA1
S1130A80242FAE010E94A105CE01DF91CF911F91C9
S1130A900F91EF900895BB274A3031F4992322F443
S1130AA0BDE2909581959F4F0C948805BB272A3011
S1130AB051F4992342F4BDE2909580957095619527
S1130AC07F4F8F4F9F4F0C946605BB27FA01A62FCB
S1130AD06217710581059105330B30FB66F0AA2777
S1130AE0660F771F881F991FAA1FA21710F0A21B59
S1130AF063953850A9F7A05DAA3308F0A95DA193C6
S1130B0036F7B111B1931082CA010C94D307BB27F5
S1130B10FB015527AA27880F991FAA1FA41710F0B5
S1130B20A41B83955051B9F7A05DAA3308F0A95DC1
S1130B30A193009779F7B111B1931192CB010C9461
S1130B40D307A9E0B0E0E7EAF5E00C94E9076A010D
S1130B50122FB02E2BE3201720F0FF24F394F00E75
S1130B6002C02CE3F22E0F2D27E0AE014F5F5F4F42
S1130B700E94FB06BC014981842F8970813031F0C9
S1130B80E1FC06C0E0FE06C090E205C09DE203C0A1
S1130B909BE201C090E05E2D507143FF3CC0911177
S1130BA002C083E001C084E0811718F4212F281BC0
S1130BB001C020E051110BC0F601822F30E28823DE
S1130BC019F031938150FBCFC20ED11C20E0992340
S1130BD029F0D6019C93F60131966F01C601039664
S1130BE0E2FE0AC03EE4D6013C9341E411964C93E4
S1130BF0119712963C9306C03EE6F601308341E617
S1130C0041833283FC01322F40E2332309F442C092
S1130C1041933150FACF42FF44C0911102C083E0A6
S1130C2001C084E0811718F4212F281B01C020E0A3
S1130C3051110BC0F601822F30E2882319F0319351
S1130C408150FBCFC20ED11C20E0992329F0D6019C
S1130C509C93F60131966F01C6010396E2FE0BC028
S1130C6039E4D6013C933EE411963C93119736E463
S1130C7012963C9307C039E6F60130833EE6318391
S1130C8036E63283FC01322F40E2332319F04193DC
S1130C903150FBCFFC01E20FF11D10828EEF9FEF6C
S1130CA0A6C021E030E0911102C020E030E0161629
S1130CB017061CF4FB01319602C0E1E0F0E02E0FB0
S1130CC03F1FBB2021F0EB2DF0E0319602C0E0E0A5
S1130CD0F0E02E0F3F1FE12FF0E02E173F071CF42A
S1130CE0121B212F01C020E08E2D887159F4F601CA
S1130CF0822F30E2882319F031938150FBCFC20E4A
S1130D00D11C20E0992329F0D6019C93F601319659
S1130D106F0151110BC0F601822F90E3882319F063
S1130D2091938150FBCFC20ED11C20E00F2D060FF2
S1130D309A81342F307144FF03C0913309F4015078
S1130D40101624F4093018F008E001C001E0AB01EA
S1130D5077FF02C040E050E0FB01E41BF50BA1E08B
S1130D60B0E0AC0FBD1FEA0FFB1F8EE2A82E4B01B3
S1130D70801A91080B2D10E01195019511094F3F30
S1130D80BFEF5B0721F4D601AC9211966D01641795
S1130D9075072CF08416950614F4818101C080E354
S1130DA0415051093196D60111967D0140175107E2
S1130DB024F0D6018C936701E2CF6417750739F4E8
S1130DC0963320F4953319F4311101C081E3F6010F
S1130DD08083F701822F90E2882319F09193815048
S1130DE0FBCFF701E20FF11D108280E090E029961D
S1130DF0ECE00C940508283008F027E03327DA01EA
S1130E00990F311D87FD916000966105710539F4D4
S1130E1032602E5F3D9330E32A95E1F708959F3FBA
S1130E2030F080387105610509F03C5F3C5F3D930B
S1130E30913008F08068911DDF93CF931F930F9337
S1130E40FF92EF92192F987F9695E92F9695969594
S1130E50E90FFF27EC58FE4F99273327EE24FF2490
S1130E60A701E70105900894079428F4360FE71EBC
S1130E70F81E491F511D660F771F881F991F06947E
S1130E80A1F70590079428F4E70EF81E491F561F92
S1130E90C11D770F881F991F661F0694A1F705903F
S1130EA0079428F4F80E491F561FC71FD11D880F39
S1130EB0991F661F771F0694A1F70590079420F4E5
S1130EC0490F561FC71FD81F990F661F771F881F0A
S1130ED00694A9F784911095177041F0D695C7959B
S1130EE057954795F794E7941A95C1F7EAE1F1E02D
S1130EF068941590159135916591959105907FE2CF
S1130F007395E118F10A430B560BC90BD009C0F7CE
S1130F10E10CF11E431F561FC91FD01D7EF4703310
S1130F2011F48A95E6CFE894015030F0080F0AF4E2
S1130F300027021708F4202F2395022F7A3328F074
S1130F4079E37D932A95E9F710C07D932A9589F674
S1130F50069497956795379517951794E118F10AB4
S1130F60430B560BC90BD00998F023957E917395CA
S1130F707A3308F070E37C932013B8F77E917061A4
S1130F807D9330F0839571E37D9370E32A95E1F7C7
S1130F901124EF90FF900F911F91CF91DF9199272A
S1130FA087FD90950895DC01FC01672F71917723EB
S1130FB0E1F7329704C07C916D9370836291AE1710
S1130FC0BF07C8F308952F923F924F925F926F929A
S1130FD07F928F929F92AF92BF92CF92DF92EF92C5
S1130FE0FF920F931F93CF93DF93CDB7DEB7CA1B46
S1130FF0DB0B0FB6F894DEBF0FBECDBF09942A8871
S1131000398848885F846E847D848C849B84AA8418
S1131010B984C884DF80EE80FD800C811B81AA81A5
S1131020B981CE0FD11D0FB6F894DEBF0FBECDBF70
S10B1030ED010895F894FFCFCF
S11310384C6563747572612048583731313A200021
S1131048202D3E20005065736F2867293A20002020
S1131058536572766F3A20000D0A000103020604F4
S10710680C08090063
S9030000FC
