:100000000C9434000C9451000C9451000C94710029
:100010000C9486000C9451000C9451000C945100E7
:100020000C9451000C9451000C9451000C9451000C
:100030000C9451000C9451000C9451000C945100FC
:100040000C9451000C9451000C9451000C945100EC
:100050000C9451000C9451000C9451000C945100DC
:100060000C9451000C94510011241FBECFEFD8E026
:10007000DEBFCDBF11E0A0E0B1E0E0E5F2E002C0FC
:1000800005900D92AA30B107D9F721E0AAE0B1E0BE
:1000900001C01D92AD30B207E1F70E94EA000C9456
:1000A00026010C9400008FEF8AB91BB808958A309E
:1000B00038F4E82FF0E0E050FF4F80818BB90895CD
:1000C0001BB8089595B180910B01907F8F70892B9B
:1000D00085B998B180910A01907F8F70892B88B97A
:1000E00008951F920F920FB60F9211248F931C99AF
:1000F00007C080910C01811103C081E080930C0145
:100100008F910F900FBE0F901F9018951F920F9216
:100110000FB60F9211242F933F934F935F936F93DA
:100120007F938F939F93AF93BF93EF93FF938091B0
:100130000C01823071F5349914C080910B018F301D
:1001400020F480910B018F5F01C080E080930B0150
:100150002FEF83EC99E0215080409040E1F700C000
:100160000000359914C080910A018F3020F48091ED
:100170000A018F5F01C080E080930A012FEF83ECBA
:1001800099E0215080409040E1F700C000000E94BB
:100190006200FF91EF91BF91AF919F918F917F91FD
:1001A0006F915F914F913F912F910F900FBE0F90E4
:1001B0001F901895E8E6F0E0808183608083EBE68D
:1001C000F0E0808180618083ECE6F0E080818063F4
:1001D00080830895E1ECF0E08081877E80830E9437
:1001E00053008FE084B987B985B1806185B988B142
:1001F000806388B90E94DA00789480910C01813084
:1002000089F08230B1F018C08C2F0E9457002FEF78
:1002100083ED90E3215080409040E1F700C0000062
:10022000C15001C0C5E0CF3F79F782E080930C0157
:10023000E4CF0E946200E1CF80E00E94570085B1C8
:10024000807F85B988B1807F88B9D7CFF894FFCFF8
:0A0250003F065B4F666D7D077F6F70
:00000001FF
