S01500004573636C61766F5072756562612E73726563E3
S11300000C9434000C9446000C9446000C94460066
S11300100C9446000C9446000C9446000C94460044
S11300200C9446000C9446000C9446000C94460034
S11300300C9446000C9446000C9446000C94460024
S11300400C9446000C9486000C9446000C944600D4
S11300500C9446000C9446000C9446000C94460004
S11300600C9446000C94460011241FBECFEFD8E038
S1130070DEBFCDBF21E0A0E0B1E001C01D92A13000
S1130080B207E1F70E9464000C94F0000C940000A5
S113009080E480937C0086E880937A000895ECE7FE
S11300A0F0E09081907F8F70892B8083EAE7F0E005
S11300B080818064808380917A0086FDFCCF80916A
S11300C0780090917900089584B1836084B98AB1ED
S11300D08C6F8AB90E94480020E040E060E080E034
S11300E00E94CF000E94EC007894FFCF95B19C7FD2
S11300F0282F2295269526952370922B95B990E06A
S1130100880F991F880F991F8BB908951F920F921A
S11301100FB60F9211242F933F934F935F936F93D6
S11301207F938F939F93AF93BF93CF93EF93FF935B
S1130130CEB5C1111EC08091000181110DC00E9475
S11301404F0096958795969587958EBD0E9476006B
S113015081E08093000111C081E00E944F009695D8
S11301608795969587958EBD0E9476001092000122
S113017004C08C2F0E947600CEBDFF91EF91CF91E9
S1130180BF91AF919F918F917F916F915F914F91AB
S11301903F912F910F900FBE0F901F9018958130B3
S11301A031F484B1886284B980E58CBD05C084B122
S11301B0806184B980E48CBD613019F48CB58062AF
S11301C08CBD413019F48CB588608CBD213019F494
S11301D08CB584608CBD08958CB580688CBD089501
S10701E0F894FFCFBD
S9030000FC
