:100000000C9434000C9451000C9451000C94C300D7
:100010000C9429010C9451000C9451000C94510043
:100020000C9451000C9451000C9451000C9451000C
:100030000C9451000C9451000C9451000C945100FC
:100040000C9451000C9451000C9451000C945100EC
:100050000C9451000C9451000C9451000C945100DC
:100060000C9451000C94510011241FBECFEFD8E026
:10007000DEBFCDBF11E0A0E0B1E0E6E3F3E002C0F7
:1000800005900D92A031B107D9F721E0A0E1B1E0D0
:1000900001C01D92A631B207E1F70E9495000C94B1
:1000A00099010C9400008FEF8AB91BB81092C1001F
:1000B0000895CF93DF93CDB7DEB760970FB6F8946E
:1000C000DEBF0FBECDBF90E1E0E0F1E0DE011196B2
:1000D00001900D929A95E1F7803140F4E1E0F0E073
:1000E000EC0FFD1FE80FF11D80818BB960960FB6F4
:1000F000F894DEBF0FBECDBFDF91CF910895E8E643
:10010000F0E0808181608083EBE6F0E080818061B7
:1001100080830895E8E6F0E0808182608083ECE6E9
:10012000F0E08081806380830895F8940E945300FA
:100130009FE094B985B1806185B997B988B1806332
:1001400088B90E947F000E948A00789480911501EE
:100150008130E1F70EC08C2F0E9459002FEF83ED04
:1001600090E3215080409040E1F700C00000C15072
:1001700001C0C5E0C111EFCF80E00E94590082E0CC
:1001800080931501E3CF1F920F920FB60F921124A7
:100190002F933F934F935F936F937F938F939F938F
:1001A000AF93BF93EF93FF932FEF89EF90E0215030
:1001B00080409040E1F700C000001C9939C0809158
:1001C0001001811135C080911501823089F588B107
:1001D000807F88B9809114018F5F80931401809192
:1001E000140190E0019783709078992324F401978B
:1001F0008C6F9F6F0196809312012091120181E014
:1002000090E002C0880F991F2A95E2F798B1892BD8
:1002100088B980911201833059F481E080931001F4
:100220000E94590088B18F6088B985B1807F85B9F7
:10023000FF91EF91BF91AF919F918F917F916F91BE
:100240005F914F913F912F910F900FBE0F901F9094
:1002500018951F920F920FB60F9211242F933F9370
:100260004F935F936F937F938F939F93AF93BF93BE
:10027000EF93FF932FEF89EF90E021508040904063
:10028000E1F700C00000349907C080911501811189
:1002900003C081E08093150135993AC08091100127
:1002A000811136C080911501823091F585B1807F32
:1002B00085B9809113018F5F8093130180911301A1
:1002C00090E0019783709078992324F401978C6FC4
:1002D0009F6F0196809311012091110181E090E0C0
:1002E00002C0880F991F2A95E2F795B1892B85B92D
:1002F00080911101833061F481E08093100182E0EC
:100300000E94590085B18F6085B988B1807F88B916
:10031000FF91EF91BF91AF919F918F917F916F91DD
:100320005F914F913F912F910F900FBE0F901F90B3
:060330001895F894FFCFC0
:100336003F065B4F666D7D077F6F777C395E79710F
:040000050080011561
:00000001FF
