:100000000C94BA000C94D7000C94D7000C94D70031
:100010000C94D7000C94D7000C94D7000C94D70004
:100020000C94D7000C94D7000C94D7000C94D700F4
:100030000C94D7000C94D7000C94D7000C94D700E4
:100040000C94D7000C94D7000C943A030C94D7006E
:100050000C94D7000C94F2020C94D7000C94D700A7
:100060000C94D7000C94D7002E0134013B014201BF
:100070004901500157015E01650100407A10F35AB1
:1000800000A0724E18090010A5D4E80000E87648D8
:10009000170000E40B54020000CA9A3B000000E184
:1000A000F505000080969800000040420F00000017
:1000B000A08601000000102700000000E8030000F7
:1000C00000006400000000000A00000000000100C1
:1000D000000000002C76D888DC674F0823DFC1DFE2
:1000E000AE59E1B1B796E5E3E453C63AE6519976E5
:1000F00096E8E6C28426EB898C9B62ED407C6FFC1F
:10010000EFBC9C9F40F2BAA56FA5F490055A2AF760
:100110005C936B6CF9676DC11BFCE0E40D47FEF569
:1001200020E6B500D0ED902E0300943577050080D1
:10013000841E080000204E0A000000C80C33333330
:10014000330F986E12831141EF8D2114893BE655D0
:1001500016CFFEE6DB18D1844B381BF77C1D901DB3
:10016000A4BBE424203284725E228100C9F124EC15
:10017000A1E53D2711241FBECFEFD8E0DEBFCDBFE4
:1001800011E0A0E0B1E0E2EDFFE002C005900D92C9
:10019000AE39B107D9F721E0AEE9B1E001C01D9257
:1001A000A33BB207E1F70E9448020C94E7070C94C6
:1001B0000000ECE7F0E01082808180648083808121
:1001C0008F778083808180628083EAE7F0E010820D
:1001D000808180688083808188608083808187605F
:1001E000808308958230C1F028F4882349F081305B
:1001F00069F008958430E1F0A8F08530F9F00895B1
:10020000EEE7F0E08081816080830895EEE7F0E022
:100210008081826080830895EEE7F0E080818460D1
:1002200080830895EEE7F0E0808188608083089500
:10023000EEE7F0E08081806180830895EEE7F0E0F2
:10024000808180628083089590E08930910508F074
:1002500042C0FC01EC5CFF4F0C942E05ECE7F0E093
:100260008081807F808337C0ECE7F0E08081807FF1
:100270008160808330C0ECE7F0E08081807F826025
:10028000808329C0ECE7F0E08081807F83608083F9
:1002900022C0ECE7F0E08081807F846080831BC017
:1002A000ECE7F0E08081807F8560808314C0ECE71C
:1002B000F0E08081807F866080830DC0ECE7F0E015
:1002C0008081807F8760808306C0ECE7F0E08081DA
:1002D000807F88608083809179000895EAE7F0E06C
:1002E0008081806480838FE39FE10197F1F700C0F4
:1002F000000008950E942401682F70E080E090E0E3
:100300000E94350420E030E040EA50E40E94C1043D
:1003100020E030E04FE753E40E94C103089584FFDA
:1003200004C095B1916095B903C095B19E7F95B910
:1003300085FF04C095B1926095B903C095B19D7FCA
:1003400095B986FF04C095B1946095B903C095B185
:100350009B7F95B9882324F495B1986095B903C023
:1003600095B1977F95B980FF04C09BB190619BB90F
:1003700003C09BB19F7E9BB981FF04C09BB190627B
:100380009BB903C09BB19F7D9BB982FF04C09BB109
:1003900090649BB903C09BB19F7B9BB983FF04C052
:1003A0008BB180688BB908958BB18F778BB9089525
:1003B0009BB19B7F9BB90E948F018BB188608BB9E9
:1003C0008FE79EE30197F1F700C000008BB1877FB4
:1003D0008BB9089584B18F6084B98AB18C6F8AB962
:1003E00015B81BB88FE19EE40197F1F700C000003B
:1003F00088E30E94D8018FE19EE40197F1F700C0E5
:1004000000008CE00E94D8018FE39CE90197F1F78E
:1004100000C0000086E00E94D8018FE39CE90197AC
:10042000F1F700C0000081E00E94D8018FE39CE951
:100430000197F1F700C0000008959BB194609BB94B
:100440000E948F018BB188608BB98FE79EE3019783
:10045000F1F700C000008BB1877F8BB90895CF936F
:10046000DF93EC0103C00E941D0221968881811157
:10047000FACFDF91CF910895813019F48FE7860F7D
:1004800004C0823021F48FEB860F0E94D8010895BA
:10049000F89417B80E94EA012FEF89EF90E02150FD
:1004A00080409040E1F700C000000E94D90080E049
:1004B0000E94F20081E00E94F2000E94A20380E00C
:1004C00091E00E9480038EE291E00E948003789484
:1004D00062E081E00E943C0284E591E00E942F02EC
:1004E0000E946E0161E082E00E943C026091A201E4
:1004F0007091A3018091A4019091A50108EA11E0F7
:1005000022E044E00E943405C8010E942F0284E6E4
:1005100091E00E942F0260919E0170919F01809155
:10052000A0019091A10122E044E00E943405C8019D
:100530000E942F0287E691E00E942F028091A7017E
:100540004AE0B80190E00E94540589E691E00E94DB
:100550002F026EE082E00E943C02C8010E942F023E
:100560008DE691E00E9480036091A2017091A30149
:100570008091A4019091A50122E044E00E943405FD
:10058000C8010E94800381E791E00E94800360918E
:100590009E0170919F018091A0019091A10122E0A4
:1005A00044E00E943405C8010E94800387E791E07F
:1005B0000E9480038091A7014AE0B80190E00E9468
:1005C0005405C8010E9480038CE991E00E948003D9
:1005D0002FEF89E698E1215080409040E1F700C07C
:1005E00000007ECF1F920F920FB60F9211242F930F
:1005F0003F934F935F936F937F938F939F93AF93AB
:10060000BF93EF93FF93EAE7F0E0808180618083FE
:100610008091A60181110FC081E08093A60180E046
:100620000E947A016093A2017093A3018093A401B8
:100630009093A5010EC0813061F41092A6010E9432
:100640007A0160939E0170939F018093A001909323
:10065000A101FF91EF91BF91AF919F918F917F91F8
:100660006F915F914F913F912F910F900FBE0F901F
:100670001F9018951F920F920FB60F9211242F936F
:100680003F934F935F936F937F938F939F93AF931A
:10069000BF93EF93FF938091C6008093B201809146
:1006A000C00085FFFCCF8091B2010E949103809130
:1006B000B2018B3231F48091A7018F5F8093A70143
:1006C0000EC08091B2018D3231F48091A70181502A
:1006D0008093A70104C08EE791E00E948003FF9100
:1006E000EF91BF91AF919F918F917F916F915F91AA
:1006F0004F913F912F910F900FBE0F901F90189523
:10070000AC0120E007C09091C00095FFFCCF309372
:10071000C6002F5FFA01E20FF11D30813111F3CFD6
:100720000895CF93DF931F92CDB7DEB78983898178
:100730008093C6008FE891E00E9480030F90DF91C4
:10074000CF9108958AB18E7F8AB98AB182608AB9C1
:10075000E0ECF0E01082808182608083E1ECF0E0E8
:100760001082808188698083E2ECF0E010828081D1
:10077000866080838FEC90E09093C5008093C400E6
:1007800008950E94D5030C9487040E94800458F0B9
:100790000E94790440F029F45F3F29F00C94700422
:1007A00051110C94BB040C9476040E94980468F3D5
:1007B0009923B1F3552391F3951B550BBB27AA271A
:1007C00062177307840738F09F5F5F4F220F331F54
:1007D000441FAA1FA9F335D00E2E3AF0E0E832D01C
:1007E00091505040E695001CCAF72BD0FE2F29D01F
:1007F000660F771F881FBB1F261737074807AB07F1
:10080000B0E809F0BB0B802DBF01FF2793585F4F65
:100810003AF09E3F510578F00C9470040C94BB04A0
:100820005F3FE4F3983ED4F3869577956795B79547
:10083000F7959F5FC9F7880F911D9695879597F952
:100840000895E1E0660F771F881FBB1F62177307CB
:100850008407BA0720F0621B730B840BBA0BEE1FE0
:1008600088F7E0950895E89409C097FB3EF49095C9
:100870008095709561957F4F8F4F9F4F9923A9F079
:10088000F92F96E9BB279395F69587957795679508
:10089000B795F111F8CFFAF4BB0F11F460FF1BC04C
:1008A0006F5F7F4F8F4F9F4F16C0882311F096E9DF
:1008B00011C0772321F09EE8872F762F05C066238D
:1008C00071F096E8862F70E060E02AF09A95660F46
:1008D000771F881FDAF7880F9695879597F90895FF
:1008E00097F99F6780E870E060E008959FEF80ECE3
:1008F000089500240A941616170618060906089586
:1009000000240A9412161306140605060895092EEB
:100910000394000C11F4882352F0BB0F40F4BF2B5A
:1009200011F460FF04C06F5F7F4F8F4F9F4F08959A
:1009300057FD9058440F551F59F05F3F71F0479590
:10094000880F97FB991F61F09F3F79F08795089575
:10095000121613061406551FF2CF4695F1DF08C094
:10096000161617061806991FF1CF869571056105B1
:1009700008940895E894BB2766277727CB0197F959
:1009800008950E94D4040C9487040E94790438F0DE
:100990000E94800420F0952311F00C9470040C94B4
:1009A000760411240C94BB040E94980470F3959F64
:1009B000C1F3950F50E0551F629FF001729FBB2756
:1009C000F00DB11D639FAA27F00DB11DAA1F649FF2
:1009D0006627B00DA11D661F829F2227B00DA11DA5
:1009E000621F739FB00DA11D621F839FA00D611D2B
:1009F000221F749F3327A00D611D231F849F600D4C
:100A0000211D822F762F6A2F11249F5750409AF074
:100A1000F1F088234AF0EE0FFF1FBB1F661F771F00
:100A2000881F91505040A9F79E3F510580F00C94CB
:100A300070040C94BB045F3FE4F3983ED4F38695B6
:100A400077956795B795F795E7959F5FC1F7FE2B6B
:100A5000880F911D9695879597F90895EE0FFF1FC2
:100A60000590F491E02D0994EF920F931F93CF938B
:100A7000DF93E80147FD02C034E001C034E1042EF9
:100A8000000C550B57FF03C0519541955109E32EBA
:100A9000022F242FAE010E946E05CE01DF91CF916F
:100AA0001F910F91EF900895BB27FB015527AA27AF
:100AB000880F991FAA1FA41710F0A41B83955051EB
:100AC000B9F7A05DAA3308F0A95DA193009779F763
:100AD000B111B1931192CB010C94A007A9E0B0E041
:100AE000E4E7F5E00C94B6076A01122FB02E2BE371
:100AF000201720F0FF24F394F00E02C02CE3F22E16
:100B00000F2D27E0AE014F5F5F4F0E94C806BC016A
:100B10004981842F8970813031F0E1FC06C0E0FE0C
:100B200006C090E205C09DE203C09BE201C090E0D8
:100B30005E2D507143FF3CC0911102C083E001C0A3
:100B400084E0811718F4212F281B01C020E05111E7
:100B50000BC0F601822F30E2882319F031938150C7
:100B6000FBCFC20ED11C20E0992329F0D6019C9323
:100B7000F60131966F01C6010396E2FE0AC03EE41B
:100B8000D6013C9341E411964C93119712963C93F5
:100B900006C03EE6F601308341E641833283FC0124
:100BA000322F40E2332309F442C041933150FACF4F
:100BB00042FF44C0911102C083E001C084E081176C
:100BC00018F4212F281B01C020E051110BC0F601A1
:100BD000822F30E2882319F031938150FBCFC20E6F
:100BE000D11C20E0992329F0D6019C93F60131967F
:100BF0006F01C6010396E2FE0BC039E4D6013C93B7
:100C00003EE411963C93119736E412963C9307C04C
:100C100039E6F60130833EE6318336E63283FC0165
:100C2000322F40E2332319F041933150FBCFFC01C6
:100C3000E20FF11D10828EEF9FEFA6C021E030E0A1
:100C4000911102C020E030E0161617061CF4FB01DB
:100C5000319602C0E1E0F0E02E0F3F1FBB2021F0F3
:100C6000EB2DF0E0319602C0E0E0F0E02E0F3F1FE8
:100C7000E12FF0E02E173F071CF4121B212F01C0BB
:100C800020E08E2D887159F4F601822F30E28823FE
:100C900019F031938150FBCFC20ED11C20E0992373
:100CA00029F0D6019C93F60131966F0151110BC0CA
:100CB000F601822F90E3882319F091938150FBCFA6
:100CC000C20ED11C20E00F2D060F9A81342F3071F7
:100CD00044FF03C0913309F40150101624F4093085
:100CE00018F008E001C001E0AB0177FF02C040E06E
:100CF00050E0FB01E41BF50BA1E0B0E0AC0FBD1F21
:100D0000EA0FFB1F8EE2A82E4B01801A91080B2DD3
:100D100010E01195019511094F3FBFEF5B0721F4DA
:100D2000D601AC9211966D01641775072CF08416EC
:100D3000950614F4818101C080E341505109319638
:100D4000D60111967D014017510724F0D6018C93EE
:100D50006701E2CF6417750739F4963320F49533B1
:100D600019F4311101C081E3F6018083F701822F6C
:100D700090E2882319F091938150FBCFF701E20FA5
:100D8000F11D108280E090E02996ECE00C94D207EF
:100D9000283008F027E03327DA01990F311D87FD4D
:100DA000916000966105710539F432602E5F3D93C4
:100DB00030E32A95E1F708959F3F30F080387105C0
:100DC000610509F03C5F3C5F3D93913008F080681D
:100DD000911DDF93CF931F930F93FF92EF92192FE3
:100DE000987F9695E92F96959695E90FFF27EC52F7
:100DF000FF4F99273327EE24FF24A701E701059031
:100E00000894079428F4360FE71EF81E491F511D59
:100E1000660F771F881F991F0694A1F70590079406
:100E200028F4E70EF81E491F561FC11D770F881FB3
:100E3000991F661F0694A1F70590079428F4F80EF1
:100E4000491F561FC71FD11D880F991F661F771F87
:100E50000694A1F70590079420F4490F561FC71F69
:100E6000D81F990F661F771F881F0694A9F78491D2
:100E70001095177041F0D695C79557954795F794FB
:100E8000E7941A95C1F7EAE7F0E068941590159198
:100E900035916591959105907FE27395E118F10A7E
:100EA000430B560BC90BD009C0F7E10CF11E431FD1
:100EB000561FC91FD01D7EF4703311F48A95E6CFFA
:100EC000E894015030F0080F0AF40027021708F4E4
:100ED000202F2395022F7A3328F079E37D932A95EA
:100EE000E9F710C07D932A9589F606949795679542
:100EF000379517951794E118F10A430B560BC90B58
:100F0000D00998F023957E9173957A3308F070E3B9
:100F10007C932013B8F77E9170617D9330F08395B8
:100F200071E37D9370E32A95E1F71124EF90FF9030
:100F30000F911F91CF91DF91992787FD909508958B
:100F4000DC01FC01672F71917723E1F7329704C030
:100F50007C916D9370836291AE17BF07C8F30895BB
:100F60002F923F924F925F926F927F928F929F92B9
:100F7000AF92BF92CF92DF92EF92FF920F931F93A7
:100F8000CF93DF93CDB7DEB7CA1BDB0B0FB6F89458
:100F9000DEBF0FBECDBF09942A88398848885F8498
:100FA0006E847D848C849B84AA84B984C884DF8009
:100FB000EE80FD800C811B81AA81B981CE0FD11DED
:100FC0000FB6F894DEBF0FBECDBFED010895F894C3
:020FD000FFCF51
:100FD200496E696369616C697A6163696F6E2063E6
:100FE2006F6D706C6574610A436F6E74726F6C2002
:100FF20064656C20636F6E7461646F720A00466F81
:10100200726D61746F3A2050313A58582E585856C2
:101012002050323A58582E58585620434E543A5877
:1010220058580A0050313A20202050323A202020CD
:1010320050333A0056200056002020200050313A0A
:1010420000562050323A005620434E543A004F7018
:1010520063696F6E20696E76616C6964610A002053
:0E1062003C2D2D20456E766961646F200A00DA
:00000001FF
