:100000000C9434000C9449000C9449000C94490061
:100010000C9449000C9449000C9449000C9449003C
:100020000C9449000C9449000C9449000C9449002C
:100030000C9449000C9449000C9449000C9449001C
:100040000C9449000C9449000C9449000C9449000C
:100050000C9449000C9449000C9449000C944900FC
:100060000C9449000C94490011241FBECFEFD8E036
:10007000DEBFCDBF11E0A0E0B1E0E2E2F9E002C0F6
:1000800005900D92A43AB107D9F70E945B000C9439
:100090008F040C94000095B19C7F282F2295269503
:1000A00026952370922B95B990E0880F991F880FA1
:1000B000991F8BB90895CF93DF93CDB7DEB7C8549E
:1000C000D1090FB6F894DEBF0FBECDBF87B18160F6
:1000D00087B988B1816088B984B1836084B98AB1F5
:1000E0008C6F8AB90E94480120E040E060E081E026
:1000F0000E94210180E091E00E94650188E191E089
:100100000E94650180E291E00E94650188E591E02E
:100110000E9465010E947801803519F0803709F04E
:1001200042C088B18E7F88B980E00E9443010E945E
:100130004101082F80E00E9443010E944101182FD5
:1001400088B1816088B91F921F931F920F9381E835
:1001500091E09F938F93CE0101967C019F938F93A3
:100160000E94A501C7010E946501802F0E944B00DB
:1001700088B18E7F88B9802F0E94430188B1816049
:1001800088B9812F0E944B0088B18E7F88B9812F5A
:100190000E94430188B1816088B90FB6F894DEBF30
:1001A0000FBECDBFB7CF8C3421F08C3609F0B2CF63
:1001B00002C010E001C010E00E9478018D3011F003
:1001C0008A3081F5E1E4F0E0EC0FFD1FE10FF11D55
:1001D0001082CE018F5B9F4F0E947F018C010E9495
:1001E0004B0088B18E7F88B9802F0E94430188B16F
:1001F000816088B911271F930F9386E991E09F933F
:100200008F938E010F5F1F4F1F930F930E94A501C5
:10021000C8010E9465010F900F900F900F900F90F2
:100220000F9078CF90ED980F9A3030F6173020F677
:10023000E1E4F0E0EC0FFD1FE10FF11D80831F5F93
:10024000BBCF813049F484B1886284B984B18460C1
:1002500084B981E58CBD05C084B1806184B980E436
:100260008CBD613019F48CB580628CBD413019F4BD
:100270008CB588608CBD213019F48CB584608CBD40
:1002800008958EB508958EBD0DB407FEFDCF089577
:100290008AB182608AB98AB18E7F8AB982E08093FE
:1002A000C00088E18093C10086E08093C2008FEC9B
:1002B00090E09093C5008093C40008959091C00091
:1002C00095FFFCCF8093C60008950F931F93CF93A3
:1002D0008C01C0E003C00E945E01CF5FF801EC0F0B
:1002E000F11D80818111F7CFCF911F910F9108955A
:1002F0008091C0008823E4F78091C6000895FC0136
:1003000088279927E89421912032E9F3293010F0C9
:100310002E30C8F32B3241F02D3239F4689404C0EA
:100320000E949D01820F911D219120532A30C0F31C
:100330001EF4909581959F4F08957AE0979F902D98
:10034000879F802D910D11240895AEE0B0E0EBEA77
:10035000F1E00C9466040D891E8986E08C831A8373
:1003600009838FEF9FE79E838D83AE01475E5F4FCA
:100370006F89788DCE0101960E94C701EF81F885C3
:10038000E00FF11F10822E96E4E00C948204ABE0A3
:10039000B0E0EDECF1E00C9458046C017B018A01B3
:1003A000FC0117821682838181FFCCC1CE010196A8
:1003B0003C01F6019381F70193FD859193FF8191B3
:1003C0007F01882309F4BAC1853239F493FD859100
:1003D00093FF81917F01853229F4B60190E00E945C
:1003E000BE03E7CF912C212C312CFFE1F315D8F07F
:1003F0008B3279F038F4803279F08332A1F4232DF6
:1004000020611DC08D3261F0803369F4232D21609D
:1004100016C0832D8260382EE32DE4603E2E2AC064
:10042000F32DF8601DC037FC2DC020ED280F2A30B9
:1004300040F08E32B9F436FC81C1232D2064322E77
:1004400019C036FE06C08AE0989E200D1124922E17
:1004500011C0EAE02E9E200D1124222EF32DF06211
:100460003F2E08C08C3621F4832D8068382E02C0C0
:10047000883641F4F70193FD859193FF81917F01C7
:100480008111B3CF982F9F7D9554933028F40C5F42
:100490001F4F9FE399830DC0833631F0833771F08E
:1004A000833509F059C021C0F801808189830E5F2E
:1004B0001F4F88248394912C530113C02801F2E02C
:1004C0004F0E511CF801A080B18036FE03C0692D8B
:1004D00070E002C06FEF7FEFC5010E94B3034C01D3
:1004E0008201F32DFF773F2E16C0280122E0420E35
:1004F000511CF801A080B18036FE03C0692D70E068
:1005000002C06FEF7FEFC5010E94A8034C01F32DDD
:10051000F0683F2E820133FC1BC0822D90E08816CC
:100520009906B0F4B60180E290E00E94BE032A94DE
:10053000F4CFF50137FC859137FE81915F01B6015B
:1005400090E00E94BE0321102A9421E0821A9108B3
:100550008114910471F7E8C0843611F0893641F5B1
:10056000F80137FE07C060817181828193810C5F41
:100570001F4F08C060817181072E000C880B990BFA
:100580000E5F1F4FF32DFF763F2E97FF09C090950A
:100590008095709561957F4F8F4F9F4FF0683F2EEC
:1005A0002AE030E0A3010E94FA03882E861845C095
:1005B000853731F4232D2F7EB22E2AE030E025C07E
:1005C000932D997FB92E8F36C1F018F4883579F0C4
:1005D000B5C0803719F0883721F0B0C0E92FE0614D
:1005E000BE2EB4FE0DC0FB2DF460BF2E09C034FE3C
:1005F0000AC0292F2660B22E06C028E030E005C0D0
:1006000020E130E002C020E132E0F801B7FE07C08F
:1006100060817181828193810C5F1F4F06C0608170
:10062000718180E090E00E5F1F4FA3010E94FA03EA
:10063000882E8618FB2DFF773F2E36FE0DC0232D0A
:100640002E7FA22E891458F434FE0BC032FC09C050
:10065000832D8E7EA82E05C0B82CA32C03C0B82CE9
:1006600001C0B92CA4FE0FC0FE01E80DF11D808170
:10067000803321F49A2D997EA92E09C0A2FE06C0CE
:10068000B394B39404C08A2D867809F0B394A3FC84
:1006900011C0A0FE06C0B21488F4280C922C9B183E
:1006A0000EC0B21460F4B60180E290E00E94BE0376
:1006B000B394F7CFB21418F42B1802C0982C212C45
:1006C000A4FE10C0B60180E390E00E94BE03A2FE2B
:1006D00017C0A1FC03C088E790E002C088E590E065
:1006E000B6010CC08A2D867859F0A1FE02C08BE2BB
:1006F00001C080E2A7FC8DE2B60190E00E94BE033B
:10070000891438F4B60180E390E00E94BE039A9405
:10071000F7CF8A94F301E80DF11D8081B60190E0D6
:100720000E94BE038110F5CF222009F442CEB6010B
:1007300080E290E00E94BE032A94F6CFF601868103
:10074000978102C08FEF9FEF2B96E2E10C94740427
:10075000FC010590615070400110D8F7809590958C
:100760008E0F9F1F0895FC01615070400190011091
:10077000D8F7809590958E0F9F1F08950F931F9324
:10078000CF93DF93FB01238121FD03C08FEF9FEF08
:100790002CC022FF16C04681578124813581421723
:1007A000530744F4A081B1819D012F5F3F4F3183F6
:1007B00020838C93268137812F5F3F4F3783268399
:1007C00014C08B01EC01FB010084F185E02D09953B
:1007D000892BE1F6D80116968D919C911797019679
:1007E00017969C938E931697CE01DF91CF911F9110
:1007F0000F910895FA01AA27283051F1203181F193
:10080000E8946F936E7F6E5F7F4F8F4F9F4FAF4F18
:10081000B1E03ED0B4E03CD0670F781F891F9A1F2B
:10082000A11D680F791F8A1F911DA11D6A0F711DDF
:10083000811D911DA11D20D009F468943F912AE0EB
:10084000269F11243019305D3193DEF6CF010895D3
:10085000462F4770405D4193B3E00FD0C9F7F6CF04
:10086000462F4F70405D4A3318F0495D31FD4052CC
:10087000419302D0A9F7EACFB4E0A6959795879562
:1008800077956795BA95C9F7009761057105089541
:100890009B01AC010A2E06945795479537952795ED
:1008A000BA95C9F7620F731F841F951FA01D089585
:1008B0002F923F924F925F926F927F928F929F9270
:1008C000AF92BF92CF92DF92EF92FF920F931F935E
:1008D000CF93DF93CDB7DEB7CA1BDB0B0FB6F8940F
:1008E000DEBF0FBECDBF09942A88398848885F844F
:1008F0006E847D848C849B84AA84B984C884DF80C0
:10090000EE80FD800C811B81AA81B981CE0FD11DA3
:100910000FB6F894DEBF0FBECDBFED010895F89479
:02092000FFCF07
:1009220053697374656D61204D61657374726F20D4
:100932006C6973746F0D0A004D656E753A0D0A008D
:1009420050202D204C65657220706F74656E63694E
:10095200F36D6574726F732064656C206573636CEC
:1009620061766F2079206D6F737472617220656E8B
:10097200204C4544730D0A004C202D20456E7669AB
:1009820061722076616C6F72206D616E75616C2090
:1009920061204C4544732028302D323535290D0A0B
:1009A20000506F74313A2025642020506F74323A1F
:1009B2002025640D0A00456E766961646F3A202530
:0409C200640D0A00B6
:00000001FF
